:020000040000FA
:060000000A128A11FA2F1A
:100DD0008312031308080139ED2E08008312031350
:100DE0008813081788128815081108008312031346
:100DF0008817081388128811081508008312031336
:100E00008813081388168815081108008316031321
:100E10000814081188118812081388138312031309
:100E2000881308138812881108110800252FC7306D
:100E3000F2001A2FF20B192F1D2F1E2F0130F00276
:100E40000030031CF103F102252F70087104031D0B
:100E50002A2F2B2F172F2C2F0800F801F901512FC3
:100E60000130F0000030F1000A128A1116270A1230
:100E70008A110A128A11E8260A128A11003A031905
:100E8000422F432F4B2F0A128A11E8260A128A1189
:100E90005C2F5C2F5C2F0130F8070318F90A003033
:100EA000F90774087902031D572F73087802031C91
:100EB0005A2F5B2F302F5C2F08000A128A11062749
:100EC0000A128A110A128A11FE260A128A110A12BD
:100ED0008A11E8260A128A11F6007608F7005830BF
:100EE000F3001B30F4007708F6007608F5000A12CC
:100EF0008A112D270A128A110A128A11E8260A126B
:100F00008A11003A0319852F862FCB2F0A128A11D6
:100F1000FE260A128A11B830F0000B30F1000A12D6
:100F20008A1116270A128A110A128A11EE260A124B
:100F30008A11D030F0000730F1000A128A1116270A
:100F40000A128A110A128A11F6260A128A115830D8
:100F5000F0001B30F1000A128A1116270A128A11BA
:100F60000A128A11FE260A128A110A128A11E8262A
:100F70000A128A11F6007608F7005830F3001B3089
:100F8000F4007708F6007608F5000A128A112D277A
:100F90000A128A11CB2FB830F0000B30F1000A1280
:100FA0008A1116270A128A110A128A11EE260A12CB
:100FB0008A11D030F0000730F1000A128A1116278A
:100FC0000A128A110A128A11F6260A128A11583058
:100FD000F0001B30F1000A128A1116270A128A113A
:100FE0000A128A11FE260A128A11622F622F0A1231
:100FF0008A110028F801F90183010A128A115D2F74
:04400E00D4E0FFFFFC
:00000001FF
